:400000000010002011000000CD040000CD04000080B500AF00F05EFA80B584B000AF021CFB1D1A70204A3B1C0B3312781A701F4A3B1C0A3312781A700423013BFB6018E0FF
:400040001B4B1868391C0B31FA68131C5B009B18C3185B780B70164B1868391C0A31FA68131C5B009B18C3189B780B70FB68013BFB60FB68002B0ADB0D4B1968FA68131CF1
:400080005B009B185B5CFA1D12789A42D8D9094B3A1C0B3212781A60074B3A1C0A3212781A60BD4604B080BDCCF1FF0FCDF1FF0FCC0000201CFF0B4020FF0B4080B500AF4F
:4000C0001A4B1A4A12688021C9020A431A601820FFF7A2FF164B19221A60052000F018FB144B154A1278D2B21A60052000F0CCFB0E4B0E4A1168114A0A401A60104B114A5C
:400100001A60114B10221A60104B30221A60104B822212061A600F4B0F4A1A600F4B104A1A60104B104A1A60BD4680BD00010B402CFF0B4028FF0B40E5F1FF0FFFFFFBFFAB
:4001400004010B40060000801C0202403002024008010B400000024002000080400002403F06008080000240DB0500C080B582B000AF72B63F4B01221A70FB1D00221A70DB
:4001800023E0FB1D1A78131C5B009B185B003A4A9B183B603B681A78597809020A43997809040A43DB781B0613431A1C3B6819795B791B020B439BB2101C191C00F008FA4B
:4001C000FB1D1A78FB1D01321A70FB1D1B78012BD7D92A4A2A4B101C191C00F009FA294B802252001A80284B01221A70274B07221A60274BEE2212021A60264B264A1A601A
:40020000264B03221A60264BD82212011A60254B254A1A60254B802212061A60244B992212041A60234B01221A60234B02221A60224B224A1278D2B202210A43D2B21A7083
:400240001F4B1F4A1278D2B20C218A43D2B204210A43D2B21A70194B184A1278D2B216210A43D2B21A70FFF729FF00F001FABD4602B080BD1C700F40A0170000AC170000E9
:40028000CC17000000600F4002600F40080001400C00014008020440800D6000180204400803044020500F400400990024500F4030500F402000004000800F4000700F40A1
:4002C00001700F4010B5064C2378002B07D1054B002B02D0044800E000BF0123237010BDE0000020000000009817000008B5084B002B03D00748084900E000BF0748036817
:40030000002B03D0064B002B00D0984708BDC0460000000098170000E4000020C80000200000000090B585B000AFF860B9607A607868F96801F012F8031C1C1CB868796826
:4003400001F00CF8031C181C084900F0E1FE031C201C191C00F0DCFE031C181C044900F06BFD031C181CBD4605B090BD000040400000E04080B500AFC046022000F046FC8D
:40038000031C002BF9D0002000F064FC031C1A1C104B1A800F4B1B881BB20020191C00F07BFC031C1A1C0C4B1A800B4B1B881BB2181C01F049F9011C084B1A68084B1B68AF
:4003C000081C111C1A1CFFF7ADFF031C181CBD4680BDC0460C01002014010020180100201001002080B582B000AF00F0B5FC031C012B0BD1194B181C00F022FA00F0ACFC55
:40040000031C012B02D1FB1D01221A70FB1D1B785BB2012B1FD1FFF7ADFF114B1B881BB2181C01F011F9021C0E4B1A600D4B1B68181C0D4900F000FD031C181C0B4900F08E
:40044000FBFC031C1A1C0A4B1A60002000F030FA012000F053FABD4602B080BDB80B000014010020100100200000E841000015431801002080B500AF0E4B0F4A1A600F4B8A
:400480000F4A1A6000F032F900F0B8FA00F0B0FB0C4B181C00F058FA62B6012000F008FA002000F02BFAFFF765FF021C064B1A60F9E7C046100100200000E8C118010020A8
:4004C00000001543E50300000801002080B500AFFEE7C04680B586B000AF224B7B61224B3B61204B7B6135E03B691B68FB603B695B68BB603B699B683B6000237B600CE0CC
:40050000FB681A68BB681A60BB680433BB60FB680433FB607B6804337B607A683B689A42EED13B69DB683B6000237B6008E0BB6800221A60BB680433BB607B6804337B6029
:400540007A683B689A42F2D13B6910333B617B69013B7B617B69002BC6D101F0EFF8FFF789FFFEE7010000006818000080B582B000AF00237B600FE07B68032B04D8104B2B
:400580007A689200D35800E00E4B0F4A796889008B507B6801337B607B682F2BECD9FFF7E5FD0A4B00221A608023DB058022D205126801210A431A60BD4602B080BDC046B1
:4005C00000000000CD04000000000020C000002080B582B000AF786039607A683B68101C00211A1C01F0D0F8BD4602B080BDC04680B586B000AF7860396000233B6100237D
:400600007B612EE07B699B007A68D3181B68BB603B1C0F33BA681A70BB68FF229343BB6017E03B695B003A68D3181B781A1CBB68D3183A69520039688A1852781A703B69E2
:4006400001333B613B1C0F331A783B1C0F33013A1A703B1C0F331B78002BE2D17B6901337B617B69072BCDD9BD4606B080BDC04680B500AF034B044A1A60044B044A1A605A
:40068000BD4680BD880010400140080000031A400002800080B500AF074B02221A60074B802212061A60064B00221A60054B03221A60BD4680BDC04600010020000010400D
:4006C00008001040140F104080B500AF054B054A1168054A12680A43802109010A431A60BD4680BD080010400001002080B500AF064B1B78002B04D1FFF7CCFF034B0122F8
:400700001A70FFF7E1FFBD4680BDC046FC0000200230800804D0C0460138FDD1C046C046C0467047EFF3108072B6704780F310887047C046C046C04680B584B000AF021C38
:400740003960FB1D1A7080239B05FB60FB1D1B781F2B02D9002000F069F8FB1D1B7810339B00FA68D3181B68BB60FB1D1B7810339B00FA68D3183A681A60BB68181CBD469F
:4007800004B080BD90B587B000AF0A1CFB1D011C1970BB1D1A70BB1D1B78032B02D9002000F044F8FB1D1B781F2B02D9002000F03DF8FB1D1A7803231340DB0006337B61EF
:4007C0003C1C1334FFF7AEFF031C2370FB1D1B789B08DBB29B0014495B181B68FB607B690322111C99400B1CDA43FB681340FB60BB1D1A787B69111C99400B1CFA6813434A
:40080000FB60FB1D1B789B08DBB29B00064A9B18FA681A603B1C13331B78181CFFF786FFBD4607B090BDC04600E400E080B582B000AF021CFB1D1A7001BEBD4602B080BDD1
:4008400080B582B000AF786008E00C4B1B68181CFFF75EFF7B680A4A9B187B607A6880231B029A42F1D8074B1B687A685343181CFFF74EFFBD4602B080BDC046DC0000207D
:400880000080FFFFD400002080B582B000AF021CBB1D1A80BB1D1B88044A12785343181CFFF736FFBD4602B080BDC046D800002080B584B000AF021CFB1D1A700E4B1B6834
:4008C000DAB23B1C0F3308218A431A70FB1D1B78DB00DAB208231340D9B23B1C0F333A1C0F3212780A431A70034B3A1C0F3212781A60BD4604B080BD0002044080B584B01B
:4009000000AF021CFB1D1A700E4B1B68DAB23B1C0F3304218A431A70FB1D1B789B00DAB204231340D9B23B1C0F333A1C0F3212780A431A70034B3A1C0F3212781A60BD4677
:4009400004B080BD0002044080B582B000AF786000F04AF87B68181C00F008F8032000F011F800F037F8BD4602B080BD80B582B000AF7860024B7A681A64BD4602B080BD5F
:400980000000002090B585B000AF021CFB1D1A700623FB603C1C0B34FFF7C4FE031C23700B4B0B4A1268C021101C8843011CFA1D1078FA68041C9440221C0A431A603B1C3E
:4009C0000B331B78181CFFF7B1FEBD4605B090BD00E400E080B500AF024B01221A60BD4680BDC04600E100E080B500AF024B01221A60BD4680BDC04680E100E080B500AF76
:400A0000064B1B78002B04D100F00AF8034B01221A7000F0D9F8BD4680BDC0460401002090B585B000AF0E200321FFF7ABFE4F4B0E20191CFFF780FE4D4B01221A604D4B61
:400A40004D4A1A604D4B4E4A1A604E4B4E4A1A604E4B00221A604E4B4E4A1A604E4B4D4A1A604E4B00221A604D4B00221A604D4B01221A604C4B02221A604C4B1B687B60BE
:400A80007A684B4B13407B607B68012213437B60464B7A681A600023FB6061E0A023DA00DC239B0113407B60FB689B00414A9B187A681A60A023DA00012313400AD0374B3F
:400AC000364A1168FA680120041C9440221C92B20A431A60A023DA00022313400AD0304B2F4A1168FA680120041C9440221C92B20A431A60A023DA0080239B00134003D020
:400B000080235B00BB6002E080235B01BB60A023DA0080235B00134005D1274BFA6852000021D15209E0BB68002B00DA01335B1099B2214BFA685200D152BB681F4A534312
:400B40001F4A9B18181C1D4900F014F9031C9BB219B21C4BFA689200D150FB680133FB60FB68002B9AD0BD4605B090BD3D0D000020001A4000001A407002005004001A40E2
:400B8000F400008018001A400000FF071C001A4010001A400400040014001A4028021A4038021A4018021A40000F1A4030001A40FFFFFFDF80001A40200100201027000046
:400BC000881300001C01002080B500AF074B1B68002B09DB054B054A1268802109060A431A600A20FFF750FEBD4680BD00001A4080B500AF044B044A1268802149020A4389
:400C00001A60BD4680BDC04604001A4080B584B000AF78600023FB607A680323134011D00B4B1A6801231340FB60FB68002B03D17A6802231340F3D1FB68002B02D0044B13
:400C400001221A60FB68181CBD4604B080BDC04610021A4080B584B000AF78607B68002B02D00020FFF7E2FD7B68002B08D17B689B00084A9B181B681B041B0CFB6001E0A6
:400C80000023FB60FB689BB21BB2181CBD4604B080BDC04680011A4080B584B000AF78600A1CBB1C1A807B68002B02D00020FFF7BDFDBB1C1A881E4B79684900CB5A9BB27B
:400CC0009BB2D31A9AB2BB1C1A80BB1C00215B5E184A5A43BB1C00215B5E002B08DD164B79688900CB58002B00DA01335B1008E0114B79688900CB58002B00DA01335B1085
:400D00005B42D2180C4B79688900CB58101C191C00F030F8031C1A1C3B1C0E331A803B1C0E331B881BB2181CBD4604B080BDC04620010020102700001C01002080B582B0F6
:400D400000AF044B1B687B60024B7A681A60BD4602B080BD10021A4080B500AF044B1A6880231340DB09DBB2181CBD4680BDC04604020440002941D010B4041C4C40A4469C
:400D800001230022002900D54942002800D5404288422CD301242407A14204D2814202D209011B01F8E7E400A14204D2814202D249005B00F8E7884201D3401A1A434C0817
:400DC000A04202D3001B5C0822438C08A04202D3001B9C082243CC08A04202D3001BDC082243002803D01B0901D00909E3E7101C6446002C00D5404210BC7047002806D054
:400E000003DB0020C043400801E08020000607B4024802A14018029003BDC046190000000029EBD003B5FFF7A7FF0EBC4243891A1847C0467047C046F8B543024400C50F1B
:400E40004E024800240E2A1C9B09000EC90FB6098D425BD0221A002A00DC89E000281DD1002E00D075E0580704D00F221A40042A00D004338021C90419402A1C00293AD0D8
:400E80000134FF2C00D17FE09B015B0A5B02E4B2E405580AD20720431043F8BDFF2CE2D08021C9040E431B2A00DD2DE1311C2020D140821A9640721E96410E439B1B58017C
:400EC000D1D59B019F09381C00F01AFC421F974094425BDC141B1F231B1B3A1C9F40611C3B1CCA405F1EBB4113430024BBE7131EB9D100230022DB08FF2C04D1002B43D0F9
:400F00008020C00303435B025B0ABFE7211A002940DD002823D0FF2CA5D08020C00406431B2900DDEEE0301C2027C840791A8E40711E8E4106439B19590100D493E7013494
:400F4000FF2C55D0714901221A400B405B08134389E7013A002AB1D0FF2CA4D183E7002E00D180E701390029E5D0FF2CD8D17AE7002A1BD1621CD2B2012A4BDD9F1B7A0133
:400F800023D5F71A0D1C9EE700237FE75F4BA41A3B4068E7002946D1611CC8B2012829DDFF2924D0F3185B080C1C5CE7002C13D0FF2818D08024E404524223431B2A4DDD51
:400FC0000123F31A041C0D1C79E7002F00D07AE70023002200248EE7002B3BD0D243002AEFD0FF28EAD1331CFF240D1C3BE7FF24002380E7002C5CD1002B00D180E0002E76
:4010000000D130E79B19580100D42CE73F4A0124134028E7002C15D1002B40D1002E63D0331C0D1C1FE7002C21D1002B54D0C943002904D0FF284CD01B2958DD01239B198D
:40104000041C79E7002B19D1002E48D0331C0D1CFF2408E7331C041C0D1C04E71C1C2025D440AA1A93405A1E93412343A9E7FF282FD08024E40449422343DDE7FF24002E66
:4010800000D1F0E68022DB08D203134204D0F608164201D1331C0D1CDB00FF24E3E6002E00D1E0E69A1B500100D420E7F31A0D1CD9E6002B0DD0FF24002E00D1D3E680227F
:4010C000DB08D2031342E7D0F6081642E4D1331CE2E7331CFF24C6E6331C041CC3E6802300229B04FF2406E7231C002203E71C1C2027CC40791A8B40591E8B4123439EE7FD
:40110000331CB0E6012616E70126D7E6FFFFFFFBF0B55F4656464D464446F0B446024500C00F85B00F1C760A2D0E804641D0FF2D26D08024240400212643F6007F3D8946DC
:401140008B46F90F7C027800640A000E00918A463CD0FF2834D080231B041C430023E4007F380193009F4346019A7B4049469C4611430F2900D971E0764F89007F58BF464A
:40118000002E3ED10822022391469B46D9E75A46341CC24601920199022937D0032900D1CFE0012900D0ABE053460B400022002632E0002E19D10421012289469346C0E7B6
:4011C000221C531E9A4102320192CBE701270197002CC7D0201C00F093FA431F9C4076235B420021181A0191BCE7301C00F088FA7625431F9E406D4200232D1A99469B4642
:401200009FE70C23032199468B469AE7D446012367463B40FF2200267602D205700ADB071043184305B03CBC90469946A246AB46F0BD80260023F603FF22EDE700220026B7
:40124000EAE78020C00306423BD0044239D1061C26437602760A009BFF22DDE7281A039076016401A64239D3361B1A2201230120311C5B007600002901DBB44201D8361BDA
:401280000343013A002AF3DC741EA641341C1C43039A7F32002A27DD630704D00F232340042B00D00434270103D52B4B039A1C408032FE2A0BDD012361460B40FF22002678
:4012C000AAE706437602760A4346FF22A4E7A40101236746660AD2B23B409DE7039F1B22013F03970023C2E77E23039F5B42DB1B1B2B07DD012361460B40002200268BE729
:40130000D446C5E7221CDA40039B9E339C40231C5C1EA34113435A0704D00F221A40042A00D004335F0105D5012361460B400122002671E79E01624601231340760A00220B
:401340006AE78026F60326437602760A5346FF2262E7C04604180000FFFFFFF7F8B5C20F430244004D024800240E161C9B09000EC90FAD09FF2800D183E0012779408A42B9
:401380005CD0221A002A00DC8EE000281ED1002D00D07AE0580704D00F221A40042A00D004338021C90401221940324000293AD00134FF2C00D183E09B015B0A5B02E4B2D9
:4013C000E405580AD20720431043F8BDFF2CE1D08021C9040D431B2A00DD31E1291C2020D140821A95406A1E95410D435B1B5801D0D59B019F09381C00F082F9421F97402C
:4014000094425FDC141B1F231B1B3A1C9F40611C3B1CCA405F1EBB4113430024BAE7131EB8D100230022DB08FF2C04D1002B47D08020C00303435B025B0ABFE7211A0029B4
:4014400044DD002827D0FF2CA4D08020C00405431B2900DDF2E0281C2027C840791A8D40691E8D4105435B19590100D492E70134FF2C59D0734901221A400B405B0813437D
:4014800088E7002D00D07AE777E7013A002AADD0FF2CA0D17EE7002D00D17BE701390029E1D0FF2CD4D175E7002A1BD1621CD2B2012A4BDD5F1B7A0123D5EF1A0E1C9AE772
:4014C00000237BE75F4BA41A3B4063E7002946D1611CC8B2012829DDFF2924D0EB185B080C1C57E7002C13D0FF2818D08024E404524223431B2A4DDD0123EB1A041C0E1C66
:4015000075E7002F00D076E70023002200248AE7002B3BD0D243002AEFD0FF28EAD12B1CFF240E1C36E7FF2400237CE7002C5CD1002B00D180E0002D00D12BE75B19580117
:4015400000D427E73F4A0124134023E7002C15D1002B40D1002D63D02B1C0E1C1AE7002C21D1002B54D0C943002904D0FF284CD01B2958DD01235B19041C75E7002B19D103
:40158000002D48D02B1C0E1CFF2403E72B1C041C0E1CFFE61C1C2026D440B21A93405A1E93412343A9E7FF282FD08024E40449422343DDE7FF24002D00D1EBE68022DB08A1
:4015C000D203134204D0ED08154201D12B1C0E1CDB00FF24DEE6002D00D1DBE65A1B500100D41CE7EB1A0E1CD4E6002B0DD0FF24002D00D1CEE68022DB08D2031342E7D014
:40160000ED081542E4D12B1CE2E72B1CFF24C1E62B1C041CBEE6802300229B04FF2402E7231C0022FFE61C1C2027CC40791A8B40591E8B4123439EE72B1CABE6012512E7B9
:401640000125D3E6FFFFFFFB70B5041E3CD0C60F00D04442201C00F053F89E23251C1B1A962B0CDC083884406402640ADBB2321C6402DB05600AD2071843104370BD992BE3
:401680000ADD0522121A211CD1400A1C011C1B318D40691E8D411543052801DD421F9540164C2C406A0704D00F221540042D00D0043461010CD59F23181AFF281AD0A40199
:4016C000640AC3B2321CD3E7002200230024CFE7E408FF2B04D06402640ADBB2321CC7E7002C04D08020C00304436402640A321CFF23BDE7321CFF230024B9E7FFFFFFFBDB
:401700001C2101231B04984201D3000C10391B0A984201D3000A08391B09984201D30009043902A2105C40187047C0460403020201010101000000000000000070B50E4B3E
:401740000E4D0024ED1AAD101E1CAC4204D0A300F35898470134F8E700F074F8084B094D0024ED1AAD101E1CAC4204D0A300F35898470134F8E770BD501800005018000082
:401780005018000058180000031C8218934202D019700133FAE77047000000000400000000300F40000400400F40000406300F4004310F4003330F4002400F4002410F40D1
:4017C00004420F4004430F4002600F408201B002B601BE01D804DF0104011D011F80C010AF80B401B5016F20DA80AF20EE100F015010C201D404B410B701EC02EE08100148
:40180000110100005C1200000E1200003C120000961100003C120000321200003C120000961100000E1200000E12000032120000961100008E1100008E1100008E11000084
:4018400042120000F8B5C046F8BC08BC9E467047ED0200006D050000F8B5C046F8BC08BC9E467047C502000078180000C8000020180000004800000000000000C0F1FF0FC9
:4018800000366E01C05D0000180000000000E02E00000000000000000000000000000000000000000000000000000000000000000000000000000000000000000000000040
:4018C00000000000000000000000000000000000000000000000000000000000000000000000000000000000000000000000000000000000000000000000000000000000E8
:4019000000000000000000000000000000000000000000000000000000000000000000000000000000000000000000000000000000000000000000000000000000000000A7
:401940000000000000000000000000000000000000000000000000000000000000000000000000000000000000000000000000000000000000000000000000000000000067
:401980000000000000000000000000000000000000000000000000000000000000000000000000000000000000000000000000000000000000000000000000000000000027
:0200000490303A
:02000000223E9E
:0200000490402A
:200000000000000000000000000000000000000000000000000000000000000000000000E0
:0200000490501A
:0C000000000204C81193110104D033D198
:0200000490600A
:0100000001FE
:00000001FF